{
  "address": "0x56ee17c87a097f2f3cbDE118B12edF94d72D2555",
  "abi": [
    {
      "inputs": [
        {
          "internalType": "string",
          "name": "_name",
          "type": "string"
        },
        {
          "internalType": "string",
          "name": "_symbol",
          "type": "string"
        },
        {
          "internalType": "string",
          "name": "_uri",
          "type": "string"
        },
        {
          "internalType": "uint256",
          "name": "limit",
          "type": "uint256"
        },
        {
          "internalType": "uint256",
          "name": "price",
          "type": "uint256"
        },
        {
          "internalType": "uint256",
          "name": "maxSupply",
          "type": "uint256"
        }
      ],
      "stateMutability": "payable",
      "type": "constructor"
    },
    {
      "inputs": [],
      "name": "ApprovalCallerNotOwnerNorApproved",
      "type": "error"
    },
    {
      "inputs": [],
      "name": "ApprovalQueryForNonexistentToken",
      "type": "error"
    },
    {
      "inputs": [],
      "name": "BalanceQueryForZeroAddress",
      "type": "error"
    },
    {
      "inputs": [],
      "name": "MintERC2309QuantityExceedsLimit",
      "type": "error"
    },
    {
      "inputs": [],
      "name": "MintToZeroAddress",
      "type": "error"
    },
    {
      "inputs": [],
      "name": "MintZeroQuantity",
      "type": "error"
    },
    {
      "inputs": [],
      "name": "OwnerQueryForNonexistentToken",
      "type": "error"
    },
    {
      "inputs": [],
      "name": "OwnershipNotInitializedForExtraData",
      "type": "error"
    },
    {
      "inputs": [],
      "name": "TransferCallerNotOwnerNorApproved",
      "type": "error"
    },
    {
      "inputs": [],
      "name": "TransferFromIncorrectOwner",
      "type": "error"
    },
    {
      "inputs": [],
      "name": "TransferToNonERC721ReceiverImplementer",
      "type": "error"
    },
    {
      "inputs": [],
      "name": "TransferToZeroAddress",
      "type": "error"
    },
    {
      "inputs": [],
      "name": "URIQueryForNonexistentToken",
      "type": "error"
    },
    {
      "anonymous": false,
      "inputs": [
        {
          "indexed": true,
          "internalType": "address",
          "name": "owner",
          "type": "address"
        },
        {
          "indexed": true,
          "internalType": "address",
          "name": "approved",
          "type": "address"
        },
        {
          "indexed": true,
          "internalType": "uint256",
          "name": "tokenId",
          "type": "uint256"
        }
      ],
      "name": "Approval",
      "type": "event"
    },
    {
      "anonymous": false,
      "inputs": [
        {
          "indexed": true,
          "internalType": "address",
          "name": "owner",
          "type": "address"
        },
        {
          "indexed": true,
          "internalType": "address",
          "name": "operator",
          "type": "address"
        },
        {
          "indexed": false,
          "internalType": "bool",
          "name": "approved",
          "type": "bool"
        }
      ],
      "name": "ApprovalForAll",
      "type": "event"
    },
    {
      "anonymous": false,
      "inputs": [
        {
          "indexed": true,
          "internalType": "uint256",
          "name": "fromTokenId",
          "type": "uint256"
        },
        {
          "indexed": false,
          "internalType": "uint256",
          "name": "toTokenId",
          "type": "uint256"
        },
        {
          "indexed": true,
          "internalType": "address",
          "name": "from",
          "type": "address"
        },
        {
          "indexed": true,
          "internalType": "address",
          "name": "to",
          "type": "address"
        }
      ],
      "name": "ConsecutiveTransfer",
      "type": "event"
    },
    {
      "anonymous": false,
      "inputs": [
        {
          "indexed": true,
          "internalType": "address",
          "name": "previousOwner",
          "type": "address"
        },
        {
          "indexed": true,
          "internalType": "address",
          "name": "newOwner",
          "type": "address"
        }
      ],
      "name": "OwnershipTransferred",
      "type": "event"
    },
    {
      "anonymous": false,
      "inputs": [
        {
          "indexed": true,
          "internalType": "address",
          "name": "from",
          "type": "address"
        },
        {
          "indexed": true,
          "internalType": "address",
          "name": "to",
          "type": "address"
        },
        {
          "indexed": true,
          "internalType": "uint256",
          "name": "tokenId",
          "type": "uint256"
        }
      ],
      "name": "Transfer",
      "type": "event"
    },
    {
      "inputs": [],
      "name": "MAX_SUPPLY",
      "outputs": [
        {
          "internalType": "uint256",
          "name": "",
          "type": "uint256"
        }
      ],
      "stateMutability": "view",
      "type": "function"
    },
    {
      "inputs": [
        {
          "internalType": "address",
          "name": "to",
          "type": "address"
        },
        {
          "internalType": "uint256",
          "name": "tokenId",
          "type": "uint256"
        }
      ],
      "name": "approve",
      "outputs": [],
      "stateMutability": "payable",
      "type": "function"
    },
    {
      "inputs": [
        {
          "internalType": "address",
          "name": "owner",
          "type": "address"
        }
      ],
      "name": "balanceOf",
      "outputs": [
        {
          "internalType": "uint256",
          "name": "",
          "type": "uint256"
        }
      ],
      "stateMutability": "view",
      "type": "function"
    },
    {
      "inputs": [],
      "name": "currentPrice",
      "outputs": [
        {
          "internalType": "uint256",
          "name": "",
          "type": "uint256"
        }
      ],
      "stateMutability": "view",
      "type": "function"
    },
    {
      "inputs": [
        {
          "internalType": "uint256",
          "name": "tokenId",
          "type": "uint256"
        }
      ],
      "name": "getApproved",
      "outputs": [
        {
          "internalType": "address",
          "name": "",
          "type": "address"
        }
      ],
      "stateMutability": "view",
      "type": "function"
    },
    {
      "inputs": [],
      "name": "hiddenMetadataUri",
      "outputs": [
        {
          "internalType": "string",
          "name": "",
          "type": "string"
        }
      ],
      "stateMutability": "view",
      "type": "function"
    },
    {
      "inputs": [
        {
          "internalType": "address",
          "name": "owner",
          "type": "address"
        },
        {
          "internalType": "address",
          "name": "operator",
          "type": "address"
        }
      ],
      "name": "isApprovedForAll",
      "outputs": [
        {
          "internalType": "bool",
          "name": "",
          "type": "bool"
        }
      ],
      "stateMutability": "view",
      "type": "function"
    },
    {
      "inputs": [
        {
          "internalType": "uint256",
          "name": "amount",
          "type": "uint256"
        }
      ],
      "name": "mint",
      "outputs": [],
      "stateMutability": "payable",
      "type": "function"
    },
    {
      "inputs": [],
      "name": "name",
      "outputs": [
        {
          "internalType": "string",
          "name": "",
          "type": "string"
        }
      ],
      "stateMutability": "view",
      "type": "function"
    },
    {
      "inputs": [],
      "name": "owner",
      "outputs": [
        {
          "internalType": "address",
          "name": "",
          "type": "address"
        }
      ],
      "stateMutability": "view",
      "type": "function"
    },
    {
      "inputs": [
        {
          "internalType": "uint256",
          "name": "tokenId",
          "type": "uint256"
        }
      ],
      "name": "ownerOf",
      "outputs": [
        {
          "internalType": "address",
          "name": "",
          "type": "address"
        }
      ],
      "stateMutability": "view",
      "type": "function"
    },
    {
      "inputs": [],
      "name": "renounceOwnership",
      "outputs": [],
      "stateMutability": "nonpayable",
      "type": "function"
    },
    {
      "inputs": [
        {
          "internalType": "address",
          "name": "to",
          "type": "address"
        },
        {
          "internalType": "uint256",
          "name": "amount",
          "type": "uint256"
        }
      ],
      "name": "reserve",
      "outputs": [],
      "stateMutability": "nonpayable",
      "type": "function"
    },
    {
      "inputs": [],
      "name": "revealed",
      "outputs": [
        {
          "internalType": "bool",
          "name": "",
          "type": "bool"
        }
      ],
      "stateMutability": "view",
      "type": "function"
    },
    {
      "inputs": [
        {
          "internalType": "address",
          "name": "from",
          "type": "address"
        },
        {
          "internalType": "address",
          "name": "to",
          "type": "address"
        },
        {
          "internalType": "uint256",
          "name": "tokenId",
          "type": "uint256"
        }
      ],
      "name": "safeTransferFrom",
      "outputs": [],
      "stateMutability": "payable",
      "type": "function"
    },
    {
      "inputs": [
        {
          "internalType": "address",
          "name": "from",
          "type": "address"
        },
        {
          "internalType": "address",
          "name": "to",
          "type": "address"
        },
        {
          "internalType": "uint256",
          "name": "tokenId",
          "type": "uint256"
        },
        {
          "internalType": "bytes",
          "name": "_data",
          "type": "bytes"
        }
      ],
      "name": "safeTransferFrom",
      "outputs": [],
      "stateMutability": "payable",
      "type": "function"
    },
    {
      "inputs": [],
      "name": "saleIsActive",
      "outputs": [
        {
          "internalType": "bool",
          "name": "",
          "type": "bool"
        }
      ],
      "stateMutability": "view",
      "type": "function"
    },
    {
      "inputs": [
        {
          "internalType": "address",
          "name": "operator",
          "type": "address"
        },
        {
          "internalType": "bool",
          "name": "approved",
          "type": "bool"
        }
      ],
      "name": "setApprovalForAll",
      "outputs": [],
      "stateMutability": "nonpayable",
      "type": "function"
    },
    {
      "inputs": [
        {
          "internalType": "string",
          "name": "baseURI_",
          "type": "string"
        }
      ],
      "name": "setBaseURI",
      "outputs": [],
      "stateMutability": "nonpayable",
      "type": "function"
    },
    {
      "inputs": [
        {
          "internalType": "uint256",
          "name": "price",
          "type": "uint256"
        }
      ],
      "name": "setCurrentPrice",
      "outputs": [],
      "stateMutability": "nonpayable",
      "type": "function"
    },
    {
      "inputs": [
        {
          "internalType": "bool",
          "name": "isActive",
          "type": "bool"
        }
      ],
      "name": "setSaleIsActive",
      "outputs": [],
      "stateMutability": "nonpayable",
      "type": "function"
    },
    {
      "inputs": [
        {
          "internalType": "uint256",
          "name": "limit",
          "type": "uint256"
        }
      ],
      "name": "setWalletLimit",
      "outputs": [],
      "stateMutability": "nonpayable",
      "type": "function"
    },
    {
      "inputs": [
        {
          "internalType": "bytes4",
          "name": "interfaceId",
          "type": "bytes4"
        }
      ],
      "name": "supportsInterface",
      "outputs": [
        {
          "internalType": "bool",
          "name": "",
          "type": "bool"
        }
      ],
      "stateMutability": "view",
      "type": "function"
    },
    {
      "inputs": [],
      "name": "symbol",
      "outputs": [
        {
          "internalType": "string",
          "name": "",
          "type": "string"
        }
      ],
      "stateMutability": "view",
      "type": "function"
    },
    {
      "inputs": [
        {
          "internalType": "uint256",
          "name": "_tokenId",
          "type": "uint256"
        }
      ],
      "name": "tokenURI",
      "outputs": [
        {
          "internalType": "string",
          "name": "",
          "type": "string"
        }
      ],
      "stateMutability": "view",
      "type": "function"
    },
    {
      "inputs": [],
      "name": "totalSupply",
      "outputs": [
        {
          "internalType": "uint256",
          "name": "",
          "type": "uint256"
        }
      ],
      "stateMutability": "view",
      "type": "function"
    },
    {
      "inputs": [
        {
          "internalType": "address",
          "name": "from",
          "type": "address"
        },
        {
          "internalType": "address",
          "name": "to",
          "type": "address"
        },
        {
          "internalType": "uint256",
          "name": "tokenId",
          "type": "uint256"
        }
      ],
      "name": "transferFrom",
      "outputs": [],
      "stateMutability": "payable",
      "type": "function"
    },
    {
      "inputs": [
        {
          "internalType": "address",
          "name": "newOwner",
          "type": "address"
        }
      ],
      "name": "transferOwnership",
      "outputs": [],
      "stateMutability": "nonpayable",
      "type": "function"
    },
    {
      "inputs": [],
      "name": "uriSuffix",
      "outputs": [
        {
          "internalType": "string",
          "name": "",
          "type": "string"
        }
      ],
      "stateMutability": "view",
      "type": "function"
    },
    {
      "inputs": [],
      "name": "walletLimit",
      "outputs": [
        {
          "internalType": "uint256",
          "name": "",
          "type": "uint256"
        }
      ],
      "stateMutability": "view",
      "type": "function"
    },
    {
      "inputs": [],
      "name": "withdraw",
      "outputs": [],
      "stateMutability": "nonpayable",
      "type": "function"
    }
  ],
  "transactionHash": "0x3fc8df6d879f4b0b75b165833bbb0d9f46e118ddb0da23a952c720b2c92a9c74",
  "args": [
    "ERC721A",
    "ERC721A",
    "https://ipfs.io/ipfs/Qmbr491nZuoEsLHQ1PXihiSfoy9oSJrjUBCYWnfRoyijoJ",
    10,
    "10000000000000000",
    1000
  ],
  "numDeployments": 1,
  "solcInputHash": "b0b0c23b85e08793d61cfde066591009",
  "bytecode": "0x6008805460ff60a01b1916600160a01b179055600c805460ff1916905560e0604052600560a081905264173539b7b760d91b60c09081526200004591600e91906200012c565b5060405162001d8d38038062001d8d83398101604081905262000068916200029f565b855186908690620000819060029060208501906200012c565b508051620000979060039060208401906200012c565b50506000805550620000a933620000da565b600a829055600b83905560808190528351620000cd90600d9060208701906200012c565b5050505050505062000389565b600880546001600160a01b038381166001600160a01b0319831681179093556040519116919082907f8be0079c531659141344cd1fd0a4f28419497f9722a3daafe3b4186f6b6457e090600090a35050565b8280546200013a906200034c565b90600052602060002090601f0160209004810192826200015e5760008555620001a9565b82601f106200017957805160ff1916838001178555620001a9565b82800160010185558215620001a9579182015b82811115620001a95782518255916020019190600101906200018c565b50620001b7929150620001bb565b5090565b5b80821115620001b75760008155600101620001bc565b634e487b7160e01b600052604160045260246000fd5b600082601f830112620001fa57600080fd5b81516001600160401b0380821115620002175762000217620001d2565b604051601f8301601f19908116603f01168101908282118183101715620002425762000242620001d2565b816040528381526020925086838588010111156200025f57600080fd5b600091505b8382101562000283578582018301518183018401529082019062000264565b83821115620002955760008385830101525b9695505050505050565b60008060008060008060c08789031215620002b957600080fd5b86516001600160401b0380821115620002d157600080fd5b620002df8a838b01620001e8565b97506020890151915080821115620002f657600080fd5b620003048a838b01620001e8565b965060408901519150808211156200031b57600080fd5b506200032a89828a01620001e8565b945050606087015192506080870151915060a087015190509295509295509295565b600181811c908216806200036157607f821691505b602082108114156200038357634e487b7160e01b600052602260045260246000fd5b50919050565b6080516119da620003b36000396000818161029901528181610b180152610e0901526119da6000f3fe6080604052600436106101685760003560e01c806301ffc9a71461016d57806302c88989146101a257806306fdde03146101c4578063081812fc146101e6578063095ea7b31461021e57806318160ddd1461023157806318b200711461025457806323b872dd1461027457806332cb6b0c146102875780633c8463a1146102bb5780633ccfd60b146102d157806342842e0e146102e657806351830227146102f95780635503a0e81461031357806355f804b3146103285780636352211e1461034857806370a0823114610368578063715018a6146103885780638da5cb5b1461039d57806395d89b41146103b25780639d1b464a146103c7578063a0712d68146103dd578063a22cb465146103f0578063a45ba8e714610410578063b88d4fde14610425578063c87b56dd14610438578063cc47a40b14610458578063e985e9c514610478578063eb8d2444146104c1578063f1d5f517146104e2578063f2fde38b14610502575b600080fd5b34801561017957600080fd5b5061018d6101883660046114be565b610522565b60405190151581526020015b60405180910390f35b3480156101ae57600080fd5b506101c26101bd3660046114f0565b610574565b005b3480156101d057600080fd5b506101d961059a565b6040516101999190611563565b3480156101f257600080fd5b50610206610201366004611576565b61062c565b6040516001600160a01b039091168152602001610199565b6101c261022c3660046115a6565b610670565b34801561023d57600080fd5b50600154600054035b604051908152602001610199565b34801561026057600080fd5b506101c261026f366004611576565b610710565b6101c26102823660046115d0565b61071d565b34801561029357600080fd5b506102467f000000000000000000000000000000000000000000000000000000000000000081565b3480156102c757600080fd5b50610246600b5481565b3480156102dd57600080fd5b506101c261089c565b6101c26102f43660046115d0565b6108d7565b34801561030557600080fd5b50600c5461018d9060ff1681565b34801561031f57600080fd5b506101d96108f7565b34801561033457600080fd5b506101c2610343366004611697565b610985565b34801561035457600080fd5b50610206610363366004611576565b6109a0565b34801561037457600080fd5b506102466103833660046116df565b6109ab565b34801561039457600080fd5b506101c26109f9565b3480156103a957600080fd5b50610206610a0d565b3480156103be57600080fd5b506101d9610a1c565b3480156103d357600080fd5b50610246600a5481565b6101c26103eb366004611576565b610a2b565b3480156103fc57600080fd5b506101c261040b3660046116fa565b610bc1565b34801561041c57600080fd5b506101d9610c2d565b6101c261043336600461172d565b610c3a565b34801561044457600080fd5b506101d9610453366004611576565b610c84565b34801561046457600080fd5b506101c26104733660046115a6565b610dee565b34801561048457600080fd5b5061018d6104933660046117a8565b6001600160a01b03918216600090815260076020908152604080832093909416825291909152205460ff1690565b3480156104cd57600080fd5b5060085461018d90600160a01b900460ff1681565b3480156104ee57600080fd5b506101c26104fd366004611576565b610e5a565b34801561050e57600080fd5b506101c261051d3660046116df565b610e67565b60006301ffc9a760e01b6001600160e01b03198316148061055357506380ac58cd60e01b6001600160e01b03198316145b8061056e5750635b5e139f60e01b6001600160e01b03198316145b92915050565b61057c610ee0565b60088054911515600160a01b0260ff60a01b19909216919091179055565b6060600280546105a9906117d2565b80601f01602080910402602001604051908101604052809291908181526020018280546105d5906117d2565b80156106225780601f106105f757610100808354040283529160200191610622565b820191906000526020600020905b81548152906001019060200180831161060557829003601f168201915b5050505050905090565b600061063782610f3f565b610654576040516333d1c03960e21b815260040160405180910390fd5b506000908152600660205260409020546001600160a01b031690565b600061067b826109a0565b9050336001600160a01b038216146106b4576106978133610493565b6106b4576040516367d9dca160e11b815260040160405180910390fd5b60008281526006602052604080822080546001600160a01b0319166001600160a01b0387811691821790925591518593918516917f8c5be1e5ebec7d5bd14f71427d1e84f3dd0314c0f7b2291e5b200ac8c7c3b92591a4505050565b610718610ee0565b600a55565b600061072882610f66565b9050836001600160a01b0316816001600160a01b03161461075b5760405162a1148160e81b815260040160405180910390fd5b60008281526006602052604090208054338082146001600160a01b038816909114176107a85761078b8633610493565b6107a857604051632ce44b5f60e11b815260040160405180910390fd5b6001600160a01b0385166107cf57604051633a954ecd60e21b815260040160405180910390fd5b80156107da57600082555b6001600160a01b0386811660009081526005602052604080822080546000190190559187168152208054600101905561081785600160e11b610fc7565b600085815260046020526040902055600160e11b831661086557600184016000818152600460205260409020546108635760005481146108635760008181526004602052604090208490555b505b83856001600160a01b0316876001600160a01b03166000805160206119ae83398151915260405160405180910390a4505050505050565b6108a4610ee0565b6040514790339082156108fc029083906000818181858888f193505050501580156108d3573d6000803e3d6000fd5b5050565b6108f283838360405180602001604052806000815250610c3a565b505050565b600e8054610904906117d2565b80601f0160208091040260200160405190810160405280929190818152602001828054610930906117d2565b801561097d5780601f106109525761010080835404028352916020019161097d565b820191906000526020600020905b81548152906001019060200180831161096057829003601f168201915b505050505081565b61098d610ee0565b80516108d390600990602084019061140f565b600061056e82610f66565b60006001600160a01b0382166109d4576040516323d3ad8160e21b815260040160405180910390fd5b506001600160a01b03166000908152600560205260409020546001600160401b031690565b610a01610ee0565b610a0b6000610fdc565b565b6008546001600160a01b031690565b6060600380546105a9906117d2565b6000610a3a6001546000540390565b3360009081526005602052604090819020546008549293506001600160401b03911c1690600160a01b900460ff16610ac45760405162461bcd60e51b815260206004820152602260248201527f53616c65206d7573742062652061637469766520746f206d696e7420746f6b656044820152616e7360f01b60648201526084015b60405180910390fd5b600b54610ad18285611823565b1115610b165760405162461bcd60e51b8152602060048201526014602482015273115e18d959591cc81dd85b1b195d081b1a5b5a5d60621b6044820152606401610abb565b7f0000000000000000000000000000000000000000000000000000000000000000610b418484611823565b1115610b5f5760405162461bcd60e51b8152600401610abb9061183b565b3483600a54610b6e9190611870565b14610bb75760405162461bcd60e51b815260206004820152601960248201527815985b1d59481cd95b9d081a5cc81b9bdd0818dbdc9c9958dd603a1b6044820152606401610abb565b6108f2338461102e565b3360008181526007602090815260408083206001600160a01b03871680855290835292819020805460ff191686151590811790915590519081529192917f17307eab39ab6107e8899845ad3d59bd9653f200f220920489ca2b5937696c31910160405180910390a35050565b600d8054610904906117d2565b610c4584848461071d565b6001600160a01b0383163b15610c7e57610c6184848484611048565b610c7e576040516368d2bf6b60e11b815260040160405180910390fd5b50505050565b6060610c8f82610f3f565b610cf35760405162461bcd60e51b815260206004820152602f60248201527f4552433732314d657461646174613a2055524920717565727920666f72206e6f60448201526e3732bc34b9ba32b73a103a37b5b2b760891b6064820152608401610abb565b600c5460ff16610d8f57600d8054610d0a906117d2565b80601f0160208091040260200160405190810160405280929190818152602001828054610d36906117d2565b8015610d835780601f10610d5857610100808354040283529160200191610d83565b820191906000526020600020905b815481529060010190602001808311610d6657829003601f168201915b50505050509050919050565b6000610d99611140565b90506000815111610db95760405180602001604052806000815250610de7565b80610dc38461114f565b600e604051602001610dd79392919061188f565b6040516020818303038152906040525b9392505050565b610df6610ee0565b6000610e056001546000540390565b90507f0000000000000000000000000000000000000000000000000000000000000000610e328383611823565b1115610e505760405162461bcd60e51b8152600401610abb9061183b565b6108f2838361102e565b610e62610ee0565b600b55565b610e6f610ee0565b6001600160a01b038116610ed45760405162461bcd60e51b815260206004820152602660248201527f4f776e61626c653a206e6577206f776e657220697320746865207a65726f206160448201526564647265737360d01b6064820152608401610abb565b610edd81610fdc565b50565b33610ee9610a0d565b6001600160a01b031614610a0b5760405162461bcd60e51b815260206004820181905260248201527f4f776e61626c653a2063616c6c6572206973206e6f7420746865206f776e65726044820152606401610abb565b600080548210801561056e575050600090815260046020526040902054600160e01b161590565b600081600054811015610fae57600081815260046020526040902054600160e01b8116610fac575b80610de7575060001901600081815260046020526040902054610f8e565b505b604051636f96cda160e11b815260040160405180910390fd5b4260a01b176001600160a01b03919091161790565b600880546001600160a01b038381166001600160a01b0319831681179093556040519116919082907f8be0079c531659141344cd1fd0a4f28419497f9722a3daafe3b4186f6b6457e090600090a35050565b6108d38282604051806020016040528060008152506111eb565b604051630a85bd0160e11b81526000906001600160a01b0385169063150b7a029061107d903390899088908890600401611953565b602060405180830381600087803b15801561109757600080fd5b505af19250505080156110c7575060408051601f3d908101601f191682019092526110c491810190611990565b60015b611122573d8080156110f5576040519150601f19603f3d011682016040523d82523d6000602084013e6110fa565b606091505b50805161111a576040516368d2bf6b60e11b815260040160405180910390fd5b805181602001fd5b6001600160e01b031916630a85bd0160e11b1490505b949350505050565b6060600980546105a9906117d2565b6060600061115c83611258565b60010190506000816001600160401b0381111561117b5761117b61160c565b6040519080825280601f01601f1916602001820160405280156111a5576020820181803683370190505b5090508181016020015b600019016f181899199a1a9b1b9c1cb0b131b232b360811b600a86061a8153600a85049450846111de576111e3565b6111af565b509392505050565b6111f5838361132e565b6001600160a01b0383163b156108f2576000548281035b61121f6000868380600101945086611048565b61123c576040516368d2bf6b60e11b815260040160405180910390fd5b81811061120c57816000541461125157600080fd5b5050505050565b60008072184f03e93ff9f4daa797ed6e38ed64bf6a1f0160401b83106112975772184f03e93ff9f4daa797ed6e38ed64bf6a1f0160401b830492506040015b6904ee2d6d415b85acef8160201b83106112c1576904ee2d6d415b85acef8160201b830492506020015b662386f26fc1000083106112df57662386f26fc10000830492506010015b6305f5e10083106112f7576305f5e100830492506008015b612710831061130b57612710830492506004015b6064831061131d576064830492506002015b600a831061056e5760010192915050565b6000548161134f5760405163b562e8dd60e01b815260040160405180910390fd5b6001600160a01b038316600090815260056020526040902080546001600160401b018402019055611386836001841460e11b610fc7565b6000828152600460205260408120919091556001600160a01b0384169083830190839083906000805160206119ae8339815191528180a4600183015b8181146113e857808360006000805160206119ae833981519152600080a46001016113c2565b508161140657604051622e076360e81b815260040160405180910390fd5b60005550505050565b82805461141b906117d2565b90600052602060002090601f01602090048101928261143d5760008555611483565b82601f1061145657805160ff1916838001178555611483565b82800160010185558215611483579182015b82811115611483578251825591602001919060010190611468565b5061148f929150611493565b5090565b5b8082111561148f5760008155600101611494565b6001600160e01b031981168114610edd57600080fd5b6000602082840312156114d057600080fd5b8135610de7816114a8565b803580151581146114eb57600080fd5b919050565b60006020828403121561150257600080fd5b610de7826114db565b60005b8381101561152657818101518382015260200161150e565b83811115610c7e5750506000910152565b6000815180845261154f81602086016020860161150b565b601f01601f19169290920160200192915050565b602081526000610de76020830184611537565b60006020828403121561158857600080fd5b5035919050565b80356001600160a01b03811681146114eb57600080fd5b600080604083850312156115b957600080fd5b6115c28361158f565b946020939093013593505050565b6000806000606084860312156115e557600080fd5b6115ee8461158f565b92506115fc6020850161158f565b9150604084013590509250925092565b634e487b7160e01b600052604160045260246000fd5b60006001600160401b038084111561163c5761163c61160c565b604051601f8501601f19908116603f011681019082821181831017156116645761166461160c565b8160405280935085815286868601111561167d57600080fd5b858560208301376000602087830101525050509392505050565b6000602082840312156116a957600080fd5b81356001600160401b038111156116bf57600080fd5b8201601f810184136116d057600080fd5b61113884823560208401611622565b6000602082840312156116f157600080fd5b610de78261158f565b6000806040838503121561170d57600080fd5b6117168361158f565b9150611724602084016114db565b90509250929050565b6000806000806080858703121561174357600080fd5b61174c8561158f565b935061175a6020860161158f565b92506040850135915060608501356001600160401b0381111561177c57600080fd5b8501601f8101871361178d57600080fd5b61179c87823560208401611622565b91505092959194509250565b600080604083850312156117bb57600080fd5b6117c48361158f565b91506117246020840161158f565b600181811c908216806117e657607f821691505b6020821081141561180757634e487b7160e01b600052602260045260246000fd5b50919050565b634e487b7160e01b600052601160045260246000fd5b600082198211156118365761183661180d565b500190565b6020808252818101527f507572636861736520776f756c6420657863656564206d617820746f6b656e73604082015260600190565b600081600019048311821515161561188a5761188a61180d565b500290565b6000845160206118a28285838a0161150b565b8551918401916118b58184848a0161150b565b8554920191600090600181811c90808316806118d257607f831692505b8583108114156118f057634e487b7160e01b85526022600452602485fd5b808015611904576001811461191557611942565b60ff19851688528388019550611942565b60008b81526020902060005b8581101561193a5781548a820152908401908801611921565b505083880195505b50939b9a5050505050505050505050565b6001600160a01b038581168252841660208201526040810183905260806060820181905260009061198690830184611537565b9695505050505050565b6000602082840312156119a257600080fd5b8151610de7816114a856feddf252ad1be2c89b69c2b068fc378daa952ba7f163c4a11628f55a4df523b3efa164736f6c6343000809000a",
  "devdoc": {
    "author": "Breakthrough Labs Inc.",
    "custom:address": "14",
    "custom:default-precision": "0",
    "custom:simple-description": "An NFT with built in sale that provides bulk minting discounts. The sale includes a per wallet limit to ensure a large number of users are able to purchase NFTs. When minting multiple NFTs, gas costs are reduced compared to a normal NFT contract.",
    "custom:version": "1.0.8",
    "details": "ERC721A NFT with the following features:  - Built-in sale with an adjustable price.  - Wallets can only buy a limited number of NFTs during the sale.  - Reserve function for the owner to mint free NFTs.  - Fixed maximum supply.  - Reduced Gas costs when minting many NFTs at the same time.",
    "kind": "dev",
    "methods": {
      "approve(address,uint256)": {
        "details": "Gives permission to `to` to transfer `tokenId` token to another account. The approval is cleared when the token is transferred. Only a single account can be approved at a time, so approving the zero address clears previous approvals. Requirements: - The caller must own the token or be an approved operator. - `tokenId` must exist. Emits an {Approval} event."
      },
      "balanceOf(address)": {
        "details": "Returns the number of tokens in `owner`'s account."
      },
      "constructor": {
        "params": {
          "_name": "NFT Name",
          "_symbol": "NFT Symbol",
          "_uri": "Token URI used for metadata",
          "limit": "Wallet Limit",
          "maxSupply": "Maximum # of NFTs",
          "price": "Initial Price | precision:18"
        }
      },
      "getApproved(uint256)": {
        "details": "Returns the account approved for `tokenId` token. Requirements: - `tokenId` must exist."
      },
      "isApprovedForAll(address,address)": {
        "details": "Returns if the `operator` is allowed to manage all of the assets of `owner`. See {setApprovalForAll}."
      },
      "mint(uint256)": {
        "details": "An external method for users to purchase and mint NFTs. Requires that the sale is active, that the minted NFTs will not exceed the `MAX_SUPPLY`, and that a sufficient payable value is sent.",
        "params": {
          "amount": "The number of NFTs to mint."
        }
      },
      "name()": {
        "details": "Returns the token collection name."
      },
      "owner()": {
        "details": "Returns the address of the current owner."
      },
      "ownerOf(uint256)": {
        "details": "Returns the owner of the `tokenId` token. Requirements: - `tokenId` must exist."
      },
      "renounceOwnership()": {
        "details": "Leaves the contract without owner. It will not be possible to call `onlyOwner` functions anymore. Can only be called by the current owner. NOTE: Renouncing ownership will leave the contract without an owner, thereby removing any functionality that is only available to the owner."
      },
      "reserve(address,uint256)": {
        "details": "A way for the owner to reserve a specifc number of NFTs without having to interact with the sale.",
        "params": {
          "amount": "The number of NFTs to reserve.",
          "to": "The address to send reserved NFTs to."
        }
      },
      "safeTransferFrom(address,address,uint256)": {
        "details": "Equivalent to `safeTransferFrom(from, to, tokenId, '')`."
      },
      "safeTransferFrom(address,address,uint256,bytes)": {
        "details": "Safely transfers `tokenId` token from `from` to `to`. Requirements: - `from` cannot be the zero address. - `to` cannot be the zero address. - `tokenId` token must exist and be owned by `from`. - If the caller is not `from`, it must be approved to move this token by either {approve} or {setApprovalForAll}. - If `to` refers to a smart contract, it must implement {IERC721Receiver-onERC721Received}, which is called upon a safe transfer. Emits a {Transfer} event."
      },
      "setApprovalForAll(address,bool)": {
        "details": "Approve or remove `operator` as an operator for the caller. Operators can call {transferFrom} or {safeTransferFrom} for any token owned by the caller. Requirements: - The `operator` cannot be the caller. Emits an {ApprovalForAll} event."
      },
      "setBaseURI(string)": {
        "details": "Updates the baseURI that will be used to retrieve NFT metadata.",
        "params": {
          "baseURI_": "The baseURI to be used."
        }
      },
      "setCurrentPrice(uint256)": {
        "details": "Sets the price of each NFT during the initial sale.",
        "params": {
          "price": "The price of each NFT during the initial sale | precision:18"
        }
      },
      "setSaleIsActive(bool)": {
        "details": "Sets whether or not the NFT sale is active.",
        "params": {
          "isActive": "Whether or not the sale will be active."
        }
      },
      "setWalletLimit(uint256)": {
        "details": "Sets the maximum number of NFTs that can be sold to a specific address.",
        "params": {
          "limit": "The maximum number of NFTs that be bought by a wallet."
        }
      },
      "supportsInterface(bytes4)": {
        "details": "Returns true if this contract implements the interface defined by `interfaceId`. See the corresponding [EIP section](https://eips.ethereum.org/EIPS/eip-165#how-interfaces-are-identified) to learn more about how these ids are created. This function call must use less than 30000 gas."
      },
      "symbol()": {
        "details": "Returns the token collection symbol."
      },
      "totalSupply()": {
        "details": "Returns the total number of tokens in existence. Burned tokens will reduce the count. To get the total number of tokens minted, please see {_totalMinted}."
      },
      "transferFrom(address,address,uint256)": {
        "details": "Transfers `tokenId` from `from` to `to`. Requirements: - `from` cannot be the zero address. - `to` cannot be the zero address. - `tokenId` token must be owned by `from`. - If the caller is not `from`, it must be approved to move this token by either {approve} or {setApprovalForAll}. Emits a {Transfer} event."
      },
      "transferOwnership(address)": {
        "details": "Transfers ownership of the contract to a new account (`newOwner`). Can only be called by the current owner."
      },
      "withdraw()": {
        "details": "A way for the owner to withdraw all proceeds from the sale."
      }
    },
    "stateVariables": {
      "currentPrice": {
        "custom:precision": "18"
      }
    },
    "title": "NFT Sale with bulk mint discount",
    "version": 1
  },
  "userdoc": {
    "errors": {
      "ApprovalCallerNotOwnerNorApproved()": [
        {
          "notice": "The caller must own the token or be an approved operator."
        }
      ],
      "ApprovalQueryForNonexistentToken()": [
        {
          "notice": "The token does not exist."
        }
      ],
      "BalanceQueryForZeroAddress()": [
        {
          "notice": "Cannot query the balance for the zero address."
        }
      ],
      "MintERC2309QuantityExceedsLimit()": [
        {
          "notice": "The `quantity` minted with ERC2309 exceeds the safety limit."
        }
      ],
      "MintToZeroAddress()": [
        {
          "notice": "Cannot mint to the zero address."
        }
      ],
      "MintZeroQuantity()": [
        {
          "notice": "The quantity of tokens minted must be more than zero."
        }
      ],
      "OwnerQueryForNonexistentToken()": [
        {
          "notice": "The token does not exist."
        }
      ],
      "OwnershipNotInitializedForExtraData()": [
        {
          "notice": "The `extraData` cannot be set on an unintialized ownership slot."
        }
      ],
      "TransferCallerNotOwnerNorApproved()": [
        {
          "notice": "The caller must own the token or be an approved operator."
        }
      ],
      "TransferFromIncorrectOwner()": [
        {
          "notice": "The token must be owned by `from`."
        }
      ],
      "TransferToNonERC721ReceiverImplementer()": [
        {
          "notice": "Cannot safely transfer to a contract that does not implement the ERC721Receiver interface."
        }
      ],
      "TransferToZeroAddress()": [
        {
          "notice": "Cannot transfer to the zero address."
        }
      ],
      "URIQueryForNonexistentToken()": [
        {
          "notice": "The token does not exist."
        }
      ]
    },
    "kind": "user",
    "methods": {},
    "notice": "NFT, Sale, ERC721, ERC721A, Limited",
    "version": 1
  },
  "storageLayout": {
    "storage": [
      {
        "astId": 3901,
        "contract": "contracts/ERC721ATest.sol:ERC721ATest",
        "label": "_currentIndex",
        "offset": 0,
        "slot": "0",
        "type": "t_uint256"
      },
      {
        "astId": 3903,
        "contract": "contracts/ERC721ATest.sol:ERC721ATest",
        "label": "_burnCounter",
        "offset": 0,
        "slot": "1",
        "type": "t_uint256"
      },
      {
        "astId": 3905,
        "contract": "contracts/ERC721ATest.sol:ERC721ATest",
        "label": "_name",
        "offset": 0,
        "slot": "2",
        "type": "t_string_storage"
      },
      {
        "astId": 3907,
        "contract": "contracts/ERC721ATest.sol:ERC721ATest",
        "label": "_symbol",
        "offset": 0,
        "slot": "3",
        "type": "t_string_storage"
      },
      {
        "astId": 3911,
        "contract": "contracts/ERC721ATest.sol:ERC721ATest",
        "label": "_packedOwnerships",
        "offset": 0,
        "slot": "4",
        "type": "t_mapping(t_uint256,t_uint256)"
      },
      {
        "astId": 3915,
        "contract": "contracts/ERC721ATest.sol:ERC721ATest",
        "label": "_packedAddressData",
        "offset": 0,
        "slot": "5",
        "type": "t_mapping(t_address,t_uint256)"
      },
      {
        "astId": 3920,
        "contract": "contracts/ERC721ATest.sol:ERC721ATest",
        "label": "_tokenApprovals",
        "offset": 0,
        "slot": "6",
        "type": "t_mapping(t_uint256,t_struct(TokenApprovalRef)3833_storage)"
      },
      {
        "astId": 3926,
        "contract": "contracts/ERC721ATest.sol:ERC721ATest",
        "label": "_operatorApprovals",
        "offset": 0,
        "slot": "7",
        "type": "t_mapping(t_address,t_mapping(t_address,t_bool))"
      },
      {
        "astId": 7,
        "contract": "contracts/ERC721ATest.sol:ERC721ATest",
        "label": "_owner",
        "offset": 0,
        "slot": "8",
        "type": "t_address"
      },
      {
        "astId": 3121,
        "contract": "contracts/ERC721ATest.sol:ERC721ATest",
        "label": "saleIsActive",
        "offset": 20,
        "slot": "8",
        "type": "t_bool"
      },
      {
        "astId": 3123,
        "contract": "contracts/ERC721ATest.sol:ERC721ATest",
        "label": "_baseURIextended",
        "offset": 0,
        "slot": "9",
        "type": "t_string_storage"
      },
      {
        "astId": 3128,
        "contract": "contracts/ERC721ATest.sol:ERC721ATest",
        "label": "currentPrice",
        "offset": 0,
        "slot": "10",
        "type": "t_uint256"
      },
      {
        "astId": 3130,
        "contract": "contracts/ERC721ATest.sol:ERC721ATest",
        "label": "walletLimit",
        "offset": 0,
        "slot": "11",
        "type": "t_uint256"
      },
      {
        "astId": 3133,
        "contract": "contracts/ERC721ATest.sol:ERC721ATest",
        "label": "revealed",
        "offset": 0,
        "slot": "12",
        "type": "t_bool"
      },
      {
        "astId": 3135,
        "contract": "contracts/ERC721ATest.sol:ERC721ATest",
        "label": "hiddenMetadataUri",
        "offset": 0,
        "slot": "13",
        "type": "t_string_storage"
      },
      {
        "astId": 3138,
        "contract": "contracts/ERC721ATest.sol:ERC721ATest",
        "label": "uriSuffix",
        "offset": 0,
        "slot": "14",
        "type": "t_string_storage"
      }
    ],
    "types": {
      "t_address": {
        "encoding": "inplace",
        "label": "address",
        "numberOfBytes": "20"
      },
      "t_bool": {
        "encoding": "inplace",
        "label": "bool",
        "numberOfBytes": "1"
      },
      "t_mapping(t_address,t_bool)": {
        "encoding": "mapping",
        "key": "t_address",
        "label": "mapping(address => bool)",
        "numberOfBytes": "32",
        "value": "t_bool"
      },
      "t_mapping(t_address,t_mapping(t_address,t_bool))": {
        "encoding": "mapping",
        "key": "t_address",
        "label": "mapping(address => mapping(address => bool))",
        "numberOfBytes": "32",
        "value": "t_mapping(t_address,t_bool)"
      },
      "t_mapping(t_address,t_uint256)": {
        "encoding": "mapping",
        "key": "t_address",
        "label": "mapping(address => uint256)",
        "numberOfBytes": "32",
        "value": "t_uint256"
      },
      "t_mapping(t_uint256,t_struct(TokenApprovalRef)3833_storage)": {
        "encoding": "mapping",
        "key": "t_uint256",
        "label": "mapping(uint256 => struct ERC721A.TokenApprovalRef)",
        "numberOfBytes": "32",
        "value": "t_struct(TokenApprovalRef)3833_storage"
      },
      "t_mapping(t_uint256,t_uint256)": {
        "encoding": "mapping",
        "key": "t_uint256",
        "label": "mapping(uint256 => uint256)",
        "numberOfBytes": "32",
        "value": "t_uint256"
      },
      "t_string_storage": {
        "encoding": "bytes",
        "label": "string",
        "numberOfBytes": "32"
      },
      "t_struct(TokenApprovalRef)3833_storage": {
        "encoding": "inplace",
        "label": "struct ERC721A.TokenApprovalRef",
        "members": [
          {
            "astId": 3832,
            "contract": "contracts/ERC721ATest.sol:ERC721ATest",
            "label": "value",
            "offset": 0,
            "slot": "0",
            "type": "t_address"
          }
        ],
        "numberOfBytes": "32"
      },
      "t_uint256": {
        "encoding": "inplace",
        "label": "uint256",
        "numberOfBytes": "32"
      }
    }
  }
}